:100000000C9483120C94A4120C94A4120C94A412B9
:100010000C94A4120C94A4120C94A4120C94A41288
:100020000C94A4120C94A4120C94A4120C94A41278
:100030000C94A4120C94A4120C94A4120C94A41268
:100040000C94A4120C94A21B0C94A4120C94A41251
:100050000C94A4120C94A4120C94A4120C94A41248
:100060000C94A4120C94A4120C94A4120C94A41238
:100070000C94A4120C94A4120C94A4120C94A41228
:100080000C94F81B0C94A4120C94A4120C94A412BB
:100090000C94A4120C94A4120C94A4120C94A41208
:1000A0000C94A4120C94A4120C94A4120C94A412F8
:1000B0000C94A4120C94A4120C94A4120C94A412E8
:1000C0000C94A4120C94A4120C94A412000000002E
:1000D0000000000000000000FFFFFFFFFFFFFEFF29
:1000E000FEFFFDFFFCFFFCFFFBFFFAFFF9FFF8FF3F
:1000F000F7FFF6FFF5FFF3FFF2FFF1FFEFFFEDFF74
:10010000ECFFEAFFE8FFE6FFE4FFE2FFE0FFDEFFCF
:10011000DCFFD9FFD7FFD4FFD2FFCFFFCCFFC9FF51
:10012000C6FFC2FFBFFFBCFFB8FFB4FFB1FFADFF0A
:10013000A9FFA4FFA0FF9CFF97FF92FF8DFF88FF00
:1001400083FF7EFF79FF73FF6DFF67FF61FF5BFF3A
:1001500055FF4EFF47FF40FF39FF32FF2AFF23FFC5
:100160001BFF13FF0BFF02FFFAFEF1FEE8FEDFFEAE
:10017000D5FECCFEC2FEB8FEAEFEA3FE99FE8EFEFC
:1001800083FE77FE6CFE60FE54FE48FE3BFE2FFEB3
:1001900022FE15FE07FEFAFDECFDDEFDD0FDC1FDE1
:1001A000B2FDA3FD94FD85FD75FD65FD55FD45FD85
:1001B00034FD23FD12FD01FDEFFCDEFCCCFCBAFC9E
:1001C000A7FC95FC82FC6FFC5CFC48FC34FC21FC29
:1001D0000DFCF8FBE4FBCFFBBAFBA5FB90FB7BFB24
:1001E00065FB50FB3AFB24FB0EFBF7FAE1FACAFA77
:1001F000B4FA9DFA86FA6FFA58FA40FA29FA12FA16
:10020000FAF9E3F9CBF9B3F99CF984F96CF954F9EB
:100210003CF925F90DF9F5F8DDF8C6F8AEF896F8D1
:100220007FF867F850F839F822F80BF8F4F7DDF7A3
:10023000C7F7B0F79AF784F76EF759F743F72EF739
:1002400019F705F7F0F6DDF6C9F6B6F6A3F690F65F
:100250007EF66CF65BF64AF639F629F619F60AF6DA
:10026000FBF5EDF5E0F5D3F5C6F5BAF5AFF5A4F578
:100270009AF591F588F580F578F572F56CF567F5E6
:1002800062F55FF55CF55AF559F558F559F55BF5EA
:100290005DF560F565F56AF570F577F580F589F53A
:1002A00093F59FF5ABF5B9F5C8F5D8F5E9F5FBF58C
:1002B0000FF623F639F651F669F683F69EF6BAF68E
:1002C000D8F6F7F618F73AF75DF782F7A8F7D0F700
:1002D000F9F723F84FF87DF8ACF8DDF80FF943F99A
:1002E00079F9B0F9E8F923FA5FFA9CFADCFA1DFB18
:1002F00060FBA4FBEAFB32FC7CFCC8FC15FD64FD42
:10030000B5FD07FE5CFEB2FE0AFF64FFC0FF1D00E4
:100310007C00DE004101A6010D027602E1024E03DF
:10032000BD032D04A00415058B0503067E06FA0601
:100330007807F8077A08FE0884090C0A960A210B48
:10034000AF0B3F0CD00C630DF90D900E290FC40FAD
:1003500061100011A0114312E7128D133514DF1440
:100360008B153816E81699174C180019B7196F1A1B
:10037000281BE41BA11C601D201EE21EA61F6B2073
:100380003221FB21C52290235D242B25FB25CD2680
:100390009F2773284929202AF82AD12BAC2C882D95
:1003A000652E432F22300331E431C732AB338F3413
:1003B00075355C3643372C381539FF39EA3AD53B69
:1003C000C23CAF3D9C3E8A3F794069415842494317
:1003D00039442A451C460E470048F248E549D74AA9
:1003E000CA4BBD4CB04DA34E964F89507B516E52B7
:1003F0006053535444553656275718580859F859DE
:10040000E85AD75BC55CB25D9F5E8B5F77606161C8
:100410004B6234631C640365E965CD66B16794681B
:100420007569556A346B116CED6CC86DA26E796F8D
:1004300050702471F871C972997367743375FE75C1
:10044000C6768D7752781579D679957A527B0C7C61
:10045000C57C7B7D307EE27E917F3E80E98092810B
:100460003882DC827D831C84B8845185E8857C8653
:100470000E879D872988B2883989BD893E8ABC8AC2
:10048000378BAF8B248C978C068D728DDB8D428ED3
:10049000A58E058F628FBB8F12906590B5900291EB
:1004A0004C919391D691169252928C92C292F5925F
:1004B0002493509379939E93C093DF93FA9312946D
:1004C0002694379445944F9456945994599456943D
:1004D0004F944594379426941294FA93DF93C093E3
:1004E0009E93799350932493F592C2928C92529258
:1004F0001692D69193914C910291B590659012907D
:10050000BB8F628F058FA58E428EDB8D728D068D1F
:10051000978C248CAF8B378BBC8A3E8ABD893989F6
:10052000B28829889D870E877C86E8855185B884A6
:100530001C847D83DC8238829281E9803E80917FB9
:10054000E27E307E7B7DC57C0C7C527B957AD679B1
:10055000157952788D77C676FE7533756774997301
:10056000C972F87124715070796FA26EC86DED6C0C
:10057000116C346B556A75699468B167CD66E9652D
:1005800003651C6434634B62616177608B5F9F5EBF
:10059000B25DC55CD75BE85AF85908591858275717
:1005A00036564455535460536E527B518950964F82
:1005B000A34EB04DBD4CCA4BD74AE549F24800485E
:1005C0000E471C462A4539444943584269417940FF
:1005D0008A3F9C3EAF3DC23CD53BEA3AFF391539D4
:1005E0002C3843375C3675358F34AB33C732E43142
:1005F00003312230432F652E882DAC2CD12BF82AC5
:10060000202A492973289F27CD26FB252B255D24E9
:100610009023C522FB2132216B20A61FE21E201E43
:10062000601DA11CE41B281B6F1AB71900194C1878
:100630009917E81638168B15DF1435148D13E71249
:100640004312A01100116110C40F290F900EF90D73
:10065000630DD00C3F0CAF0B210B960A0C0A8409DA
:10066000FE087A08F8077807FA067E0603068B0567
:100670001505A0042D04BD034E03E10276020D0210
:10068000A6014101DE007C001D00C0FF64FF0AFFDF
:10069000B2FE5CFE07FEB5FD64FD15FDC8FC7CFCEA
:1006A00032FCEAFBA4FB60FB1DFBDCFA9CFA5FFA60
:1006B00023FAE8F9B0F979F943F90FF9DDF8ACF864
:1006C0007DF84FF823F8F9F7D0F7A8F782F75DF730
:1006D0003AF718F7F7F6D8F6BAF69EF683F669F603
:1006E00051F639F623F60FF6FBF5E9F5D8F5C8F51E
:1006F000B9F5ABF59FF593F589F580F577F570F5CC
:100700006AF565F560F55DF55BF559F558F559F550
:100710005AF55CF55FF562F567F56CF572F578F5FD
:1007200080F588F591F59AF5A4F5AFF5BAF5C6F51B
:10073000D3F5E0F5EDF5FBF50AF619F629F639F6ED
:100740004AF65BF66CF67EF690F6A3F6B6F6C9F6B8
:10075000DDF6F0F605F719F72EF743F759F76EF7C0
:1007600084F79AF7B0F7C7F7DDF7F4F70BF822F83C
:1007700039F850F867F87FF896F8AEF8C6F8DDF863
:10078000F5F80DF925F93CF954F96CF984F99CF95F
:10079000B3F9CBF9E3F9FAF912FA29FA40FA58FA5F
:1007A0006FFA86FA9DFAB4FACAFAE1FAF7FA0EFB82
:1007B00024FB3AFB50FB65FB7BFB90FBA5FBBAFBE4
:1007C000CFFBE4FBF8FB0DFC21FC34FC48FC5CFC9B
:1007D0006FFC82FC95FCA7FCBAFCCCFCDEFCEFFCB9
:1007E00001FD12FD23FD34FD45FD55FD65FD75FD43
:1007F00085FD94FDA3FDB2FDC1FDD0FDDEFDECFD48
:10080000FAFD07FE15FE22FE2FFE3BFE48FE54FEBB
:1008100060FE6CFE77FE83FE8EFE99FEA3FEAEFEAA
:10082000B8FEC2FECCFED5FEDFFEE8FEF1FEFAFE0B
:1008300002FF0BFF13FF1BFF23FF2AFF32FF39FFCD
:1008400040FF47FF4EFF55FF5BFF61FF67FF6DFFF6
:1008500073FF79FF7EFF83FF88FF8DFF92FF97FF75
:100860009CFFA0FFA4FFA9FFADFFB1FFB4FFB8FF3D
:10087000BCFFBFFFC2FFC6FFC9FFCCFFCFFFD2FF47
:10088000D4FFD7FFD9FFDCFFDEFFE0FFE2FFE4FF8C
:10089000E6FFE8FFEAFFECFFEDFFEFFFF1FFF2FFFD
:1008A000F3FFF5FFF6FFF7FFF8FFF9FFFAFFFBFF95
:1008B000FCFFFCFFFDFFFEFFFEFFFFFFFFFFFFFF52
:1008C0000000000000000000000000004000800068
:1008D000C000000140018001C0010002400280020E
:1008E000C002000340038003C003000440048004EE
:1008F000C004000540058005C005000640068006CE
:10090000C006000740078007C007000840088008AD
:10091000C008000940098009C009000A400A800A8D
:10092000C00A000B400B800BC00B000C400C800C6D
:10093000C00C000D400D800DC00D000E400E800E4D
:10094000C00E000F400F800FC00F0010401080102D
:10095000C010001140118011C0110012401280120D
:10096000C012001340138013C013001440148014ED
:10097000C014001540158015C015001640168016CD
:10098000C016001740178017C017001840188018AD
:10099000C018001940198019C019001A401A801A8D
:1009A000C01A001B401B801BC01B001C401C801C6D
:1009B000C01C001D401D801DC01D001E401E801E4D
:1009C000C01E001F401F801FC01F0020402080202D
:1009D000C020002140218021C0210022402280220D
:1009E000C022002340238023C023002440248024ED
:1009F000C024002540258025C025002640268026CD
:100A0000C026002740278027C027002840288028AC
:100A1000C028002940298029C029002A402A802A8C
:100A2000C02A002B402B802BC02B002C402C802C6C
:100A3000C02C002D402D802DC02D002E402E802E4C
:100A4000C02E002F402F802FC02F0030403080302C
:100A5000C030003140318031C0310032403280320C
:100A6000C032003340338033C033003440348034EC
:100A7000C034003540358035C035003640368036CC
:100A8000C036003740378037C037003840388038AC
:100A9000C038003940398039C039003A403A803A8C
:100AA000C03A003B403B803BC03B003C403C803C6C
:100AB000C03C003D403D803DC03D003E403E803E4C
:100AC000C03E003F403F803FC03F0040404080402C
:100AD000C040004140418041C0410042404280420C
:100AE000C042004340438043C043004440448044EC
:100AF000C044004540458045C045004640468046CC
:100B0000C046004740478047C047004840488048AB
:100B1000C048004940498049C049004A404A804A8B
:100B2000C04A004B404B804BC04B004C404C804C6B
:100B3000C04C004D404D804DC04D004E404E804E4B
:100B4000C04E004F404F804FC04F0050405080502B
:100B5000C050005140518051C0510052405280520B
:100B6000C052005340538053C053005440548054EB
:100B7000C054005540558055C055005640568056CB
:100B8000C056005740578057C057005840588058AB
:100B9000C058005940598059C059005A405A805A8B
:100BA000C05A005B405B805BC05B005C405C805C6B
:100BB000C05C005D405D805DC05D005E405E805E4B
:100BC000C05E005F405F805FC05F0060406080602B
:100BD000C060006140618061C0610062406280620B
:100BE000C062006340638063C063006440648064EB
:100BF000C064006540658065C065006640668066CB
:100C0000C066006740678067C067006840688068AA
:100C1000C068006940698069C069006A406A806A8A
:100C2000C06A006B406B806BC06B006C406C806C6A
:100C3000C06C006D406D806DC06D006E406E806E4A
:100C4000C06E006F406F806FC06F0070407080702A
:100C5000C070007140718071C0710072407280720A
:100C6000C072007340738073C073007440748074EA
:100C7000C074007540758075C075007640768076CA
:100C8000C076007740778077C077007840788078AA
:100C9000C078007940798079C079007A407A807A8A
:100CA000C07A007B407B807BC07B007C407C807C6A
:100CB000C07C007D407D807DC07D007E407E807E4A
:100CC000C07E007F407F807FC07F0080C07F807FAC
:100CD000407F007FC07E807E407E007EC07D807D24
:100CE000407D007DC07C807C407C007CC07B807B24
:100CF000407B007BC07A807A407A007AC079807924
:100D000040790079C078807840780078C077807723
:100D100040770077C076807640760076C075807523
:100D200040750075C074807440740074C073807323
:100D300040730073C072807240720072C071807123
:100D400040710071C070807040700070C06F806F23
:100D5000406F006FC06E806E406E006EC06D806D23
:100D6000406D006DC06C806C406C006CC06B806B23
:100D7000406B006BC06A806A406A006AC069806923
:100D800040690069C068806840680068C067806723
:100D900040670067C066806640660066C065806523
:100DA00040650065C064806440640064C063806323
:100DB00040630063C062806240620062C061806123
:100DC00040610061C060806040600060C05F805F23
:100DD000405F005FC05E805E405E005EC05D805D23
:100DE000405D005DC05C805C405C005CC05B805B23
:100DF000405B005BC05A805A405A005AC059805923
:100E000040590059C058805840580058C057805722
:100E100040570057C056805640560056C055805522
:100E200040550055C054805440540054C053805322
:100E300040530053C052805240520052C051805122
:100E400040510051C050805040500050C04F804F22
:100E5000404F004FC04E804E404E004EC04D804D22
:100E6000404D004DC04C804C404C004CC04B804B22
:100E7000404B004BC04A804A404A004AC049804922
:100E800040490049C048804840480048C047804722
:100E900040470047C046804640460046C045804522
:100EA00040450045C044804440440044C043804322
:100EB00040430043C042804240420042C041804122
:100EC00040410041C040804040400040C03F803F22
:100ED000403F003FC03E803E403E003EC03D803D22
:100EE000403D003DC03C803C403C003CC03B803B22
:100EF000403B003BC03A803A403A003AC039803922
:100F000040390039C038803840380038C037803721
:100F100040370037C036803640360036C035803521
:100F200040350035C034803440340034C033803321
:100F300040330033C032803240320032C031803121
:100F400040310031C030803040300030C02F802F21
:100F5000402F002FC02E802E402E002EC02D802D21
:100F6000402D002DC02C802C402C002CC02B802B21
:100F7000402B002BC02A802A402A002AC029802921
:100F800040290029C028802840280028C027802721
:100F900040270027C026802640260026C025802521
:100FA00040250025C024802440240024C023802321
:100FB00040230023C022802240220022C021802121
:100FC00040210021C020802040200020C01F801F21
:100FD000401F001FC01E801E401E001EC01D801D21
:100FE000401D001DC01C801C401C001CC01B801B21
:100FF000401B001BC01A801A401A001AC019801921
:1010000040190019C018801840180018C017801720
:1010100040170017C016801640160016C015801520
:1010200040150015C014801440140014C013801320
:1010300040130013C012801240120012C011801120
:1010400040110011C010801040100010C00F800F20
:10105000400F000FC00E800E400E000EC00D800D20
:10106000400D000DC00C800C400C000CC00B800B20
:10107000400B000BC00A800A400A000AC009800920
:1010800040090009C008800840080008C007800720
:1010900040070007C006800640060006C005800520
:1010A00040050005C004800440040004C003800320
:1010B00040030003C002800240020002C001800120
:1010C00040010001C000800040000000D109D209A9
:1010D000D309D409D609D909DC09DF09E409E909EA
:1010E000EE09F409FB09020A090A120A1A0A240A7B
:1010F0002E0A380A430A4F0A5B0A680A760A830AEC
:10110000920AA10AB10AC10AD20AE30AF50A070B38
:101110001A0B2E0B420B560B6C0B810B980BAF0B63
:10112000C60BDE0BF60B100C290C430C5E0C790C75
:10113000950CB20CCE0CEC0C0A0D280D470D670D6A
:10114000870DA80DC90DEB0D0D0E300E530E770E49
:101150009B0EC00EE60E0C0F320F590F810FA90F18
:10116000D10FFA0F24104E107810A310CF10FB10DF
:10117000281155118211B011DF110E123E126E129C
:101180009E12CF120113331365139813CC1300145E
:10119000341469149E14D4140A1541157815B01529
:1011A000E815201659169316CC16071742177D1707
:1011B000B817F51731186E18AB18E9182719661902
:1011C000A519E519251A651AA61AE71A281B6A1B1C
:1011D000AD1BEF1B321C761CBA1CFE1C431D881D68
:1011E000CD1D131E5A1EA01EE71E2E1F761FBE1FEA
:1011F00007204F209820E2202C217621C0210B22AD
:101200005622A222EE223A238623D32320246E24C0
:10121000BC240A255825A725F62545269526E5262A
:1012200035278527D62727287828CA281C296E29FC
:10123000C029132A662AB92A0C2B602BB42B082C40
:101240005C2CB12C062D5B2DB02D062E5C2EB22E03
:10125000082F5E2FB52F0C306330BA301131693151
:10126000C13119327132C93222337B33D3332C343A
:101270008634DF3438359235EC354636A036FA36CA
:101280005537AF370A386438BF381A397539D0390D
:101290002C3A873AE33A3E3B9A3BF63B523CAE3C13
:1012A0000A3D663DC23D1E3E7B3ED73E333F903FEA
:1012B000ED3F4940A64002415F41BC4119427642A0
:1012C000D2422F438C43E9434644A34400455D4545
:1012D000BA4516467346D0462D478A47E7474348E6
:1012E000A048FD485A49B649134A6F4ACC4A284B90
:1012F000854BE14B3D4C994CF54C514DAD4D094E54
:10130000654EC04E1C4F774FD34F2E508950E4503E
:101310003F519A51F5514F52AA5204535E53B8535C
:1013200012546C54C5541F557855D1552A568356BE
:10133000DB5634578C57E4573C589458EB58435974
:101340009A59F159475A9E5AF45A4A5BA05BF65B88
:101350004B5CA05CF55C4A5D9F5DF35D475E9B5E08
:10136000EE5E425F955FE75F3A608C60DE60306101
:101370008161D36123627462C46214636463B46381
:1013800003645264A064EE643C658A65D765246694
:101390007166BD6609675567A067EB673668806848
:1013A000CA6814695D69A669EF69376A7F6AC66AA7
:1013B0000D6B546B9B6BE16B266C6C6CB06CF56CBD
:1013C000396D7D6DC06D036E466E886ECA6E0B6F93
:1013D0004C6F8C6FCC6F0C704B708A70C97007713A
:1013E00044718171BE71FB7136727272AD72E772B7
:1013F00021735B739473CD7305743D747574AC7411
:10140000E27418754E758375B775EB751F76527655
:101410008576B776E9761A774B777B77AB77DA778D
:101420000978387865789378C078EC7818794379BA
:101430006E799879C279EB79147A3C7A647A8B7AEE
:10144000B27AD87AFE7A237B487B6C7B907BB37B25
:10145000D57BF77B197C3A7C5A7C7A7C997CB87C6A
:10146000D67CF47C117D2E7D4A7D657D807D9B7DC3
:10147000B57DCE7DE77DFF7D177E2E7E457E5B7E32
:10148000707E857E997EAD7EC07ED37EE57EF77EC2
:10149000087F187F287F387F467F557F627F6F7F68
:1014A0007C7F887F937F9E7FA87FB27FBB7FC47F36
:1014B000CC7FD37FDA7FE07FE67FEB7FEF7FF37F28
:1014C000F77FFA7FFC7FFE7FFF7FFF7FFF7FFF7F3D
:1014D000FE7FFC7FFA7FF77FF37FEF7FEB7FE67F76
:1014E000E07FDA7FD37FCC7FC47FBB7FB27FA87FD2
:1014F0009E7F937F887F7C7F6F7F627F557F467F53
:10150000387F287F187F087FF77EE57ED37EC07EF8
:10151000AD7E997E857E707E5B7E457E2E7E177EBB
:10152000FF7DE77DCE7DB57D9B7D807D657D4A7DA0
:101530002E7D117DF47CD67CB87C997C7A7C5A7C9B
:101540003A7C197CF77BD57BB37B907B6C7B487BAB
:10155000237BFE7AD87AB27A8B7A647A3C7A147AD0
:10156000EB79C27998796E7943791879EC78C078FB
:101570009378657838780978DA77AB777B774B772B
:101580001A77E976B776857652761F76EB75B7755A
:1015900083754E751875E274AC7475743D7405747A
:1015A000CD7394735B732173E772AD72727236728E
:1015B000FB71BE71817144710771C9708A704B7083
:1015C0000C70CC6F8C6F4C6F0B6FCA6E886E466E52
:1015D000036EC06D7D6D396DF56CB06C6C6C266CF6
:1015E000E16B9B6B546B0D6BC66A7F6A376AEF6960
:1015F000A6695D691469CA6880683668EB67A06788
:1016000055670967BD6671662466D7658A653C655E
:10161000EE64A06452640364B46364631463C462DC
:1016200074622362D36181613061DE608C603A60F4
:10163000E75F955F425FEE5E9B5E475EF35D9F5D99
:101640004A5DF55CA05C4B5CF65BA05B4A5BF45AC0
:101650009E5A475AF1599A594359EB5894583C5855
:10166000E4578C573457DB5683562A56D155785554
:101670001F55C5546C541254B8535E530453AA52A8
:101680004F52F5519A513F51E45089502E50D34F4B
:10169000774F1C4FC04E654E094EAD4D514DF54C28
:1016A000994C3D4CE14B854B284BCC4A6F4A134A31
:1016B000B6495A49FD48A0484348E7478A472D475D
:1016C000D04673461646BA455D450045A344464498
:1016D000E9438C432F43D24276421942BC415F41D9
:1016E0000241A6404940ED3F903F333FD73E7B3E0D
:1016F0001E3EC23D663D0A3DAE3C523CF63B9A3B27
:101700003E3BE33A873A2C3AD03975391A39BF381B
:1017100064380A38AF375537FA36A0364636EC35D6
:1017200092353835DF3486342C34D3337B3322334F
:10173000C93271321932C13169311131BA30633075
:101740000C30B52F5E2F082FB22E5C2E062EB02D3A
:101750005B2D062DB12C5C2C082CB42B602B0C2B94
:10176000B92A662A132AC0296E291C29CA28782872
:101770002728D62785273527E52695264526F625C9
:10178000A72558250A25BC246E242024D32386238C
:101790003A23EE22A22256220B22C02176212C21AE
:1017A000E22098204F200720BE1F761F2E1FE71E25
:1017B000A01E5A1E131ECD1D881D431DFE1CBA1CE3
:1017C000761C321CEF1BAD1B6A1B281BE71AA61ADE
:1017D000651A251AE519A51966192719E918AB180C
:1017E0006E183118F517B8177D1742170717CC1662
:1017F000931659162016E815B015781541150A15D7
:10180000D4149E14691434140014CC139813651363
:1018100033130113CF129E126E123E120E12DF11FD
:10182000B011821155112811FB10CF10A3107810A0
:101830004E102410FA0FD10FA90F810F590F320F3C
:101840000C0FE60EC00E9B0E770E530E300E0D0ED3
:10185000EB0DC90DA80D870D670D470D280D0A0D5D
:10186000EC0CCE0CB20C950C790C5E0C430C290CD4
:10187000100CF60BDE0BC60BAF0B980B810B6C0B31
:10188000560B420B2E0B1A0B070BF50AE30AD20A72
:10189000C10AB10AA10A920A830A760A680A5B0A97
:1018A0004F0A430A380A2E0A240A1A0A120A090A97
:1018B000020AFB09F409EE09E909E409DF09DC0978
:1018C000D909D609D409D309D209D10900000000E9
:1018D00001000200040007000B000F0013001900B4
:1018E0001E0025002C0034003C0045004F0059002C
:1018F00064006F007B0088009500A300B100C00069
:10190000D000E000F1000301150128013B014F0167
:10191000630179018E01A501BC01D301EB01040231
:101920001E02380252026D028902A502C202E002C2
:10193000FE021D033C035C037C039D03BF03E10324
:10194000040428044B0470049504BB04E104080556
:101950002F0557058005A905D305FD052806530663
:101960007F06AB06D8060607340763079207C2074F
:10197000F207230854088608B808EB081F09530922
:101980008809BD09F209280A5F0A960ACE0A060BE1
:101990003F0B780BB20BEC0B270C620C9E0CDA0C95
:1019A000170D540D920DD00D0F0E4E0E8D0ECE0E46
:1019B0000E0F4F0F910FD30F151058109C10E01001
:1019C00024116911AE11F4113A128012C7120F13CB
:1019D00056139F13E71331147A14C4140F155915B5
:1019E000A515F0153C168916D61623177117BF17C3
:1019F0000D185C18AB18FB184B199B19EC193D1A04
:101A00008E1AE01A321B851BD71B2B1C7E1CD21C86
:101A1000261D7B1DD01D251E7B1ED01E271F7D1F52
:101A2000D41F2B208320DA2032218B21E3213C227A
:101A30009622EF224923A323FD235824B3240E2505
:101A40006925C52521267D26D92636279327F02707
:101A50004E28AB2809296729C529242A822AE12A88
:101A6000402BA02BFF2B5F2CBF2C1F2D7F2DDF2D9C
:101A7000402EA12E022F632FC42F26308730E9304D
:101A80004B31AD310F327132D43236339933FC33AE
:101A90005E34C13425358835EB354F36B2361637CE
:101AA0007937DD374138A53809396D39D139353ABB
:101AB000993AFE3A623BC73B2B3C8F3CF43C583D85
:101AC000BD3D223E863EEB3E4F3FB43F19407D4038
:101AD000E2404741AB4110427442D9423D43A243E8
:101AE00006446B44CF4433459845FC456046C446A4
:101AF00028478C47F0475448B8481B497F49E2497A
:101B0000464AA94A0C4B6F4BD24B354C984CFA4C79
:101B10005D4DBF4D214E834EE54E474FA94F0A50B4
:101B20006C50CD502E518F51EF515052B052105336
:101B30007053D05330548F54EE544D55AC550B5612
:101B40006956C75625578357E0573D589A58F75856
:101B50005459B0590C5A685AC35A1F5B7A5BD45B0C
:101B60002F5C895CE35C3D5D965DEF5D485EA05E49
:101B7000F95E515FA85FFF5F5660AD6004615A6116
:101B8000AF6105625A62AF6203635763AB63FE6382
:101B90005164A464F66448659A65EB653C668C669E
:101BA000DC662C677C67CB6719686768B568036972
:101BB00050699C69E969356A806ACB6A166B606B0B
:101BC000AA6BF36B3C6C846CCD6C146D5B6DA26D79
:101BD000E86D2E6E746EB96EFD6E416F856FC86FC5
:101BE0000B704D708F70D070117152719171D171F5
:101BF00010724E728C72CA72077343737F73BB7319
:101C0000F67330746A74A474DD7415754D7584753B
:101C1000BB75F27528765D769276C676FA762D7764
:101C200060779277C477F577257855788578B4789A
:101C3000E27810793D796A799679C279ED79177AE7
:101C4000417A6B7A947ABC7AE37A0B7B317B577B4F
:101C50007D7BA17BC67BE97B0C7C2F7C517C727CDD
:101C6000937CB37CD37CF27C107D2E7D4B7D687D94
:101C7000847D9F7DBA7DD47DEE7D077E207E387E7B
:101C80004F7E667E7C7E917EA67EBA7ECE7EE17E93
:101C9000F37E057F167F277F377F467F557F637FE3
:101CA000717F7E7F8A7F967FA17FAB7FB57FBF7F6D
:101CB000C77FCF7FD77FDD7FE47FE97FEE7FF27F35
:101CC000F67FF97FFC7FFE7FFF7FFF7FFF7FFF7F37
:101CD000FE7FFC7FF97FF67FF27FEE7FE97FE47F76
:101CE000DD7FD77FCF7FC77FBF7FB57FAB7FA17FF2
:101CF000967F8A7F7E7F717F637F557F467F377FA8
:101D0000277F167F057FF37EE17ECE7EBA7EA67E9C
:101D1000917E7C7E667E4F7E387E207E077EEE7DC5
:101D2000D47DBA7D9F7D847D687D4B7D2E7D107D29
:101D3000F27CD37CB37C937C727C517C2F7C0C7CBA
:101D4000E97BC67BA17B7D7B577B317B0B7BE37A79
:101D5000BC7A947A6B7A417A177AED79C27996795E
:101D60006A793D791079E278B47885785578257864
:101D7000F577C477927760772D77FA76C676927684
:101D80005D762876F275BB7584754D751575DD74B5
:101D9000A4746A743074F673BB737F7343730773F0
:101DA000CA728C724E721072D1719171527111712E
:101DB000D0708F704D700B70C86F856F416FFD6E66
:101DC000B96E746E2E6EE86DA26D5B6D146DCD6C88
:101DD000846C3C6CF36BAA6B606B166BCB6A806A8D
:101DE000356AE9699C6950690369B568676819686B
:101DF000CB677C672C67DC668C663C66EB659A6516
:101E00004865F664A4645164FE63AB63576303637F
:101E1000AF625A620562AF615A610461AD6056609B
:101E20000060A85F515FF95EA05E485EEF5D965D61
:101E30003D5DE35C895C2F5CD45B7A5B1F5BC35ABE
:101E4000685A0C5AB0595459F7589A583D58E057A7
:101E500083572557C75669560B56AC554D55EE540A
:101E60008F543054D05370531053B0525052EF51DE
:101E70008F512E51CD506C500A50A94F474FE54E0F
:101E8000834E214EBF4D5D4DFA4C984C354CD24B94
:101E90006F4B0C4BA94A464AE2497F491B49B84857
:101EA0005448F0478C472847C4466046FC4598454F
:101EB0003345CF446B440644A2433D43D942744268
:101EC0001042AB414741E2407D401940B43F4F3F93
:101ED000EB3E863E223EBD3D583DF43C8F3C2B3CC4
:101EE000C73B623BFE3A993A353AD1396D390939E7
:101EF000A5384138DD3779371637B2364F36EB35EE
:101F000088352535C1345E34FC3399333633D432C9
:101F100071320F32AD314B31E93087302630C42F6A
:101F2000632F022FA12E402EDF2D7F2D1F2DBF2CC2
:101F30005F2CFF2BA02B402BE12A822A242AC529C3
:101F400067290929AB284E28F02793273627D92659
:101F50007D262126C52569250E25B3245824FD2379
:101F6000A3234923EF2296223C22E3218B21322115
:101F7000DA2083202B20D41F7D1F271FD01E7B1E1D
:101F8000251ED01D7B1D261DD21C7E1C2B1CD71B85
:101F9000851B321BE01A8E1A3D1AEC199B194B193E
:101FA000FB18AB185C180D18BF1771172317D6163E
:101FB00089163C16F015A51559150F15C4147A1479
:101FC0003114E7139F1356130F13C71280123A12DE
:101FD000F411AE1169112411E0109C105810151065
:101FE000D30F910F4F0F0E0FCE0E8D0E4E0E0F0E04
:101FF000D00D920D540D170DDA0C9E0C620C270CAF
:10200000EC0BB20B780B3F0B060BCE0A960A5F0A5D
:10201000280AF209BD09880953091F09EB08B80805
:10202000860854082308F207C2079207630734079B
:102030000607D806AB067F0653062806FD05D3051E
:10204000A905800557052F050805E104BB04950483
:1020500070044B0428040404E103BF039D037C03C4
:102060005C033C031D03FE02E002C202A5028902DA
:102070006D02520238021E020402EB01D301BC01C0
:10208000A5018E01790163014F013B012801150172
:102090000301F100E000D000C000B100A3009500F2
:1020A00088007B006F00640059004F0045003C0031
:1020B00034002C0025001E00190013000F000B0037
:1020C0000700040002000100000000000000C90039
:1020D00092015B022403ED03B6047E054706100758
:1020E000D907A1086A09320AFB0AC30B8B0C530DEE
:1020F0001B0EE30EAB0F721039110012C7128E13B4
:1021000055141B15E115A7166D173318F818BD19CE
:10211000821A461B0B1CCF1C931D561E191FDC1F59
:102120009F2061212322E422A62367242725E72577
:10213000A72667272628E528A329612A1E2BDB2B43
:10214000982C542D102ECC2E862F4130FB30B431DC
:102150006D322633DE3396344D350336B9366F375C
:102160002438D8388C393F3AF23AA43B563C073DE4
:10217000B73D673E163FC53F73402041CD41794290
:102180002543D0437A442345CC4574461C47C34776
:1021900069480E49B349574AFA4A9D4B3F4CE04CB7
:1021A000804D204EBF4E5D4FFA4F97503351CE5168
:1021B000685201539A533254C9545F55F4558956A5
:1021C0001D57B0574258D3586359F359815A0F5B82
:1021D0009C5B285CB35C3D5DC65D4F5ED65E5D5F1B
:1021E000E25F6760EB606E61F0617162F162706383
:1021F000EE636B64E7646265DD655666CE664567CF
:10220000BC673168A56819698B69FC696C6ADB6A0F
:102210004A6BB76B236C8E6CF86C616DC96D306E58
:10222000956EFA6E5E6FC06F22708270E1704071C1
:102230009D71F9715472AE7206735E73B5730A7450
:102240005E74B17403755475A475F37540768D761C
:10225000D87622776B77B377F9773F788378C6782B
:10226000087949798979C779047A417A7C7AB57A8B
:10227000EE7A257B5C7B917BC47BF77B297C597C48
:10228000887CB67CE27C0E7D387D617D897DB07D69
:10229000D57DF97D1C7E3E7E5E7E7E7E9C7EB97EF7
:1022A000D47EEF7E087F207F377F4C7F617F747FF5
:1022B000867F967FA67FB47FC17FCD7FD77FE07F6B
:1022C000E87FEF7FF57FF97FFC7FFF7F0000000054
:1022D0000000002F00000007000700147F147F1487
:1022E000242A7F2A12C4C810264636495522500097
:1022F00005030000001C2241000041221C001408BC
:102300003E081408083E0808000050300010101065
:102310001010006060000020100804023E51494582
:102320003E00427F400042615149462141454B31C8
:102330001814127F1027454545393C4A4949300158
:10234000710905033649494936064949291E0036AF
:102350003600000056360000081422410014141400
:102360001414004122140850487E0A120A127E50AA
:10237000487E1111117E7F494949363E4141412233
:102380007F4141221C7F494949417F090909013E9A
:102390004149497A7F0808087F00417F4100204079
:1023A000413F017F081422417F404040407F020CA2
:1023B000027F7F0408107F3E4141413E7F090909A9
:1023C000063E4151215E7F09192946464949493156
:1023D00001017F01013F4040403F1F2040201F3F3F
:1023E0004038403F631408146307087008076151C0
:1023F000494543007F41410002040810200041414B
:102400007F000402010204404040404000010204F9
:102410000020545454787F4844443838444444207D
:10242000384444487F3854545418087E0901020C3B
:102430005252523E7F0804047800447D4000204000
:10244000443D007F1028440000417F40007C041878
:1024500004787C0804047838444444387C14141408
:1024600008081414187C7C080404084854545420A8
:10247000043F4440203C4040207C1C2040201C3C29
:102480004030403C44281028440C5050503C446498
:10249000544C44000836410000007F0000004136E3
:1024A000080010080810080000000000205454D450
:1024B000783844464520385454D41800497F4400A5
:1024C0007C0806057838444645384854565520441B
:1024D00064564D444464554C447E1111917E3C42F7
:1024E0004643247F4949C9417F504844407E040BFC
:1024F000107E3C4246433C4C525653224266534A5D
:10250000464262534A4611241FBECFEFD1E2DEBFDE
:10251000CDBF00E00CBF13E0A0E0B2E0EEE4FEE3CC
:1025200000E00BBF02C007900D92AC35B107D9F7A0
:102530002BE0ACE5B3E001C01D92AE35B207E1F788
:102540000E944F1B0C94251F0C94000021E0811564
:1025500032E093071CF021959250F9CF022E000C27
:10256000330B8F3F910509F014F4FC0104C0EFEF29
:10257000F1E0E81BF90BEE0FFF1FE453FF4D45910F
:102580005491249FC001259F900D349F900D1124DC
:1025900008959395DBCF2F923F924F925F926F9267
:1025A0007F928F929F92AF92BF92CF92DF92EF92E3
:1025B000FF920F931F93CF93DF93CDB7DEB7A6970C
:1025C0000FB6F894DEBF0FBECDBF988F8F8B7A8F7A
:1025D000698F81E090E002C0880F991F4A95E2F769
:1025E0008C01990F220B330B09831A832B833C83B5
:1025F0006801790111E0C11AD108E108F1084B0125
:10260000AF88B88C41E050E060E070E080E090E09E
:10261000DC01C416D506E606F7060CF455C00981A0
:102620001A812B813C8135952795179507952C01AB
:102630003D01400E511E621E731EC414D504E604F3
:10264000F7048CF328013901E1E04E1A51086108C2
:10265000710884219521A621B721800F911FA21F07
:10266000B31F481759076A077B071CF5F50122813C
:1026700033813C01660C771C4F88588C460C571CE4
:10268000F20100811181F50113830283F20131838C
:102690002083F40122813381098D1A8D600E711E11
:1026A000F30140805180F40153824282F30131836F
:1026B00020834F5F5F4F6F4F7F4FF2E0AF0EB11C33
:1026C00002E0800E911CA5CF09E010E01E8B0D8B5F
:1026D000C12CD12C7601C39429813A814B815C8134
:1026E000C216D306E406F5060CF03DC1A70196011B
:1026F000220F331F441F551F298B3A8B4B8B5C8B4A
:10270000220F331F3E832D838601000F111F1CA350
:102710000BA3098D1A8D18870F832F88388C812C75
:10272000912C54018D869E86AF86B88A8C149D04A8
:10273000AE04BF0409F40CC184010D8802C0000F6F
:10274000111F0A94E2F71A870987C80122DF8C015A
:1027500089859A85FBDE919581959109A80155950A
:1027600047955C8F4B8FFC01F595E795FE8FED8FBC
:10277000EBA1FCA1E20DF31D0F8118852BA13CA15B
:10278000020F131F1EA30DA30F8118851C870B8733
:102790003A8629866D857E858F85988909811A817B
:1027A0002B813C8160177107820793070CF0C1C031
:1027B000408151812B8D3C8DDA010E94B51E2B0189
:1027C0003C018EE075946794579447948A95D1F7AD
:1027D000ADA1BEA10D90BC91A02DB8A3AF8F2D8D42
:1027E0003E8D0E94B51EDC01CB012EE0B595A7956C
:1027F000979587952A95D1F793018201359527956D
:102800001795079561E046225524400E511E8C0114
:102810009D013595279517950795BC016170772720
:10282000060F171FC201801B910B9AA389A32F8D3E
:1028300038A1AB8DBC8D0E94B51E2B013C01AEE0D2
:102840007594679457944794AA95D1F72D8D3E8D32
:10285000DA010E94B51EDC01CB011EE0B595A795FB
:10286000979587951A95D1F78C019D0135952795F8
:1028700017950795BC0161707727CB01800F911FD9
:10288000B301A2017595679557954795A1E04A2236
:102890005524440D551D480F591FA985BA854D90E3
:1028A0005C90AB85BC852D913C91559447943595B2
:1028B0002795C20109A11AA1801B910B91838083E6
:1028C000C901841B950BADA1BEA18D939C93400EB5
:1028D000511EA985BA854D925C92420F531FAB855C
:1028E000BC8511965C934E930D851E852F85388986
:1028F00049895A896B897C89040F151F261F371F48
:102900000D871E872F87388B0D811E81E00FF11FE9
:102910004DA15EA1400F511F5EA34DA349855A856D
:10292000400F511F5A874987A00FB11FBC87AB8743
:1029300031CF1FEF811A910AA10AB10A22E0220EBB
:10294000311C0F8118850E5F1F4F18870F83EACE49
:102950000D891E89015011091E8B0D8BC988DA88DB
:10296000EB88FC88B9CEA6960FB6F894DEBF0FBEF2
:10297000CDBFDF91CF911F910F91FF90EF90DF902E
:10298000CF90BF90AF909F908F907F906F905F900F
:102990004F903F902F9008958F929F92AF92BF9249
:1029A000EF92FF920F931F93CF93DF93EC01AB0154
:1029B0004150510921E030E0042E02C0220F331FA4
:1029C0000A94E2F74901032E000CAA08BB08220F63
:1029D000331FCE01820F931FFC01DE0101E010E0E6
:1029E00020E030E0081519052A053B059CF46081BC
:1029F00071811296ED90FC901397F182E08213960C
:102A00007C936E9312970E5F1F4F2F4F3F4F34965C
:102A10001496E8CFBE01DF91CF911F910F91FF90E7
:102A2000EF90BF90AF909F908F90B5CD2F923F9237
:102A30004F925F926F927F928F929F92AF92BF92CE
:102A4000CF92DF92EF92FF920F931F93CF93DF937A
:102A500000D01F92CDB7DEB79C838B838B01FC0126
:102A600060817181072E000C880B990B0E94531D09
:102A70006B017C01C80117FD01969C0135952795D6
:102A80003A8329831901220C331CEB81FC81E20D6E
:102A9000F31D60817181072E000C880B990B0E9439
:102AA000531D4B015C01A7019601C701B6010E94AD
:102AB000DF1DC6D7F8D76B017C01A5019401C501C4
:102AC000B4010E94DF1D9B01AC01C701B60154D7C0
:102AD000B7D722E030E040E050E00E94991ECA01E2
:102AE000B901E1D70E94461EABD7EB81FC8161930F
:102AF0007193FC83EB8301E010E062E0462E512CE1
:102B0000612C712C29813A81021713070CF045C002
:102B1000EB81FC8160817181660F771F072E000CAD
:102B2000880B990BC0D74B015C01EB81FC81E20D56
:102B3000F31D60817181660F771F072E000C880BD3
:102B4000990BB1D76B017C01A5019401C501B401BA
:102B50000E94DF1D75D7A7D74B015C01A701960125
:102B6000C701B6010E94DF1D9B01AC01C501B40184
:102B700003D766D7A30192010E94991ECA01B90129
:102B800092D70E94461E5CD7EB81FC8161937193C2
:102B9000FC83EB830F5F1F4FB5CF0F900F900F900B
:102BA0000F90DF91CF911F910F91FF90EF90DF90E9
:102BB000CF90BF90AF909F908F907F906F905F90DD
:102BC0004F903F902F9008959C01092E000CAA0B66
:102BD000BB0B613031F4FA01EE0FFF1FE453F74EE7
:102BE0000FC0623031F4FA01EE0FFF1FE453FF4EC5
:102BF00007C0633099F4FA01EE0FFF1FE453F74F5B
:102C0000A591B4910E94B51EDC01CB012FE0B595D2
:102C1000A795979587952A95D1F70895643089F4FB
:102C2000FA01EE0FFF1FE453FF4FA591B4910E94EC
:102C3000B51E20E030E240E050E00E94991EDA012B
:102C4000C9010895EF92FF920F931F93CF93DF93E3
:102C50007C01EE0CFF1CCEE5D3E000E010E0C801E3
:102C600075DC97FF02C081589F4F880F892F881FFE
:102C7000990B899399930E0D1F1D8BE0CE35D807C4
:102C800071F7DF91CF911F910F91FF90EF90089511
:102C9000EEE5F3E080E090E0819391930296811558
:102CA00022E09207C9F7EEE5F5E080E090E081933D
:102CB00091930496811524E09207C9F7EEE5F7E0B9
:102CC00080E090E0819391930496811524E092072F
:102CD000C9F7EEE5F9E080E090E0819391930496E6
:102CE000811524E09207C9F70895AEE5B3E0EEE55B
:102CF000F5E080E093E08D939D9325E0AE35B2073B
:102D0000D1F7AEE5B7E011921192AE17BF07D9F730
:102D1000EEE5F9E080E093E08D939D93EA17FB07E1
:102D2000D9F78EE59BE0119211928E179F07D9F784
:102D30000895EEE5F3E04EE55BE01182108220E0BD
:102D400030E0809178009091790081709927022E6F
:102D500002C0880F991F0A94E2F760817181862B67
:102D6000972B9183808388E28A95F1F72F5F3F4FFD
:102D70002A30310531F732964E175F07F1F6089584
:102D8000259A249A209A229A219A80E58CBD81E086
:102D90008DBD08958EBD0DB407FEFDCF08952D9A0B
:102DA0002898F8DF289A0895CF93C82F892FF7DF46
:102DB0008C2FCF91F4CF2D982898ECDF289A089586
:102DC000CF92DF92EF92FF920F931F93CF93DF93F7
:102DD000CDB7DEB7C254D1090FB6F894DEBF0FBE2F
:102DE000CDBFCEDF2C988FE697E10197F1F700C0B9
:102DF00000002C9AEFE6F7E13197F1F700C00000F0
:102E00008DEFCDDFF0E5FA95F1F78DEFC8DF20E526
:102E10002A95F1F78DEFC3DF80E58A95F1F78DEF05
:102E2000BEDF9FEFEAEFF4E09150E040F040E1F7C1
:102E300000C0000084E1E7E0F2E0DE019F9601902F
:102E40000D928A95E1F78EE2EBE1F2E0DE01119658
:102E500001900D928A95E1F78E01015D1F4F680187
:102E600024E1C20ED11C7801F80181918F0197DF16
:102E7000F0E5FA95F1F70C151D05B1F78FE59AEE1F
:102E80000197F1F700C000008E010F5F1F4FF8019E
:102E900081918F0184DFF0E5FA95F1F70E151F059A
:102EA000B1F78FE59AEE0197F1F700C0000080E0DE
:102EB00098EECE5BDF4F0FB6F894DEBF0FBECDBFEE
:102EC000DF91CF911F910F91FF90EF90DF90CF9006
:102ED0006BCFCF93C62F90E0995F66DF8C2F90E089
:102EE0009A5FCF9161CFCF93C42FF3DF8C2FCF9117
:102EF00062CF0F931F93CF93DF93182F062FD42FFA
:102F0000C22F80E99FEE50DF812F90E0965F4CDF6B
:102F10008D2F90E0955F48DF802F90E0985F44DF31
:102F20008C2F90E0975F40DF602F812FDF91CF9152
:102F30001F910F91CECFEF92FF920F931F93CF93DC
:102F4000DF93C82F162FF42EE22ED3DFFC1648F0A5
:102F5000D12FED1620F0802F2EDFDF5FFACFCF5F6D
:102F6000F5CFDF91CF911F910F91FF90EF900895D2
:102F70000F93082F23E84FEA60E080E0DCDF0F9139
:102F800008958F929F92AF92BF92CF92DF92EF926D
:102F9000FF920F931F93CF93DF93B82EA62EE42EAC
:102FA000922E27E0260F45E0480FC5DF25E0E29E80
:102FB00070011124C0E0D0E030EAE31AF108C70143
:102FC0008C0F9D1F9C0124533D4D690100E010E0D2
:102FD0008C2E8B0CF6018491002E01C0880F0A9470
:102FE000EAF787FF05C0492D6A2D600F882D7BDF2A
:102FF0000F5F1F4F0830110569F72196C530D105C5
:10300000F1F6DF91CF911F910F91FF90EF90DF903C
:10301000CF90BF90AF909F908F9008956F927F92C6
:103020008F929F92AF92BF92CF92DF92EF92FF92D8
:103030000F931F93CF93DF93C82F862ED42F922EFA
:1030400020E1260F4AE0480F76DF25E0D29F80017D
:103050001124A12CB12C005A1109772473947C0EF1
:10306000C8018A0D9B1DFC01E453FD4D6F01D82D55
:10307000E12CF12CF60184910E2C01C0880F0A94EA
:10308000EAF787FF13C0492D6D2F8C2F2CDF492DB8
:10309000662463946D0E662D872D25DF492D662DE0
:1030A0008C2F21DF492D6D2F872D1DDFFFEFEF1AAC
:1030B000FF0ADE5F28E0E216F104E1F63FEFA31A13
:1030C000B30ACE5F85E0A816B10409F0C6CFDF9140
:1030D000CF911F910F91FF90EF90DF90CF90BF9015
:1030E000AF909F908F907F906F900895AF92BF9216
:1030F000DF92EF92FF920F931F93CF93DF93C82F2E
:10310000162F5A01F22ED02ED0E0F501ED0FF11D51
:1031100040814423A9F081E0E81207C00D2D2F2D36
:10312000612F8C2F2EDFCA5F09C082E0E812EDCF3D
:103130000D2D2F2D612F8C2F71DFC45FDF5FE5CF49
:10314000DF91CF911F910F91FF90EF90DF90BF9093
:10315000AF9008957F928F929F92AF92BF92CF923D
:10316000DF92EF92FF920F931F93CF93DF93D82EAE
:10317000162F742E822E902EC42FD0E0C81BD1099A
:10318000E22EF12CE61AF108D7FF05C0D195C195C2
:10319000D1090FEF01C001E0F7FE06C0F194E19400
:1031A000F108CC24CA9402C0CC24C394CC0FDD1FF8
:1031B000EE0CFF1C492D612F8D2D95DEEC16FD06C2
:1031C000ACF4CE01969587955701A81AB90AD71481
:1031D00011F1B7FC03C01C0DAC1ABD0AD00EAE0C29
:1031E000BF1C492D612F8D2D7EDEF1CFC701969535
:1031F00087955E01A81AB90A181569F0B7FC03C0D3
:10320000D00EAE18BF081C0DAC0EBD1E492D612F8F
:103210008D2D69DEF1CFDF91CF911F910F91FF903E
:10322000EF90DF90CF90BF90AF909F908F907F9066
:103230000895F8940F9304B7006804BF04BF0F917A
:10324000789408958098889880E480937C0085EE37
:1032500080937A0081E080937E00089581B1817E21
:1032600081B98EE182B9089A1098089581E080931F
:10327000000210928500109284008091810081608C
:1032800080938100809100028130E1F30895EF92F4
:103290000F93EE24E39400E02FEF41E552E06EE659
:1032A0008BE224DF2FEF41E652E064E681E01EDF8F
:1032B0002FEF4FE752E06AE58DE018DF2FEF49E985
:1032C00052E060E58FE112DF2FEF4DEA52E06CE350
:1032D00089E10CDF2FEF43EC52E062E38CE106DF83
:1032E0002FEF48ED52E06AE081E000DF2FEF41EE82
:1032F00052E062E081E0FADE0F91EF900895CF9204
:10330000DF92EF92FF921F93CF93DF9323E840E089
:103310006DE980E0EEDD9EE5E92E93E0F92E11E304
:1033200064E0812FD6DDF70124813581828193818C
:10333000821793070CF4C901EC0183E0D595C7957A
:103340008A95E1F7C12CD12CCC16DD0614F48FEF51
:1033500001C080E030DDFFEFCF1ADF0A80E8C81639
:10336000D10491F71F5FE4E0EE0EF11C103BC1F6B3
:10337000DF91CF911F91FF90EF90DF90CF90089554
:103380000F931F9323E840E06DE980E0B2DD0CE18C
:1033900010E023E840E360E080E3DCDE23E04FEA76
:1033A00063E08CE2D7DE2CE140E36CE18CE2D2DE1C
:1033B00026E340E366E38CE2CDDE20E540E360E512
:1033C0008CE2C8DE2AE640E36AE68CE2C3DE23E84C
:1033D00040E363E88CE2BEDE23E04AE360E08AE398
:1033E000B9DE23E044E460E084E4B4DE23E04EE4AC
:1033F00060E08EE4AFDE23E048E560E088E5AADE29
:1034000023E042E660E082E6A5DE23E04CE660E0F1
:103410008CE6A0DE23E046E760E086E79BDE23E063
:1034200040E860E080E896DE23E04AE860E08AE871
:1034300091DE23E044E960E084E98CDE23E04EE99C
:1034400060E08EE987DE23E048EA60E088EA82DE19
:103450001F910F910895EF920F931092060200E0D2
:1034600023E84BE260E080E066DD23E84DE960E0C0
:1034700080E03FDDEE24E3942CEF47EF52E06AE773
:1034800081E034DE80910202882321F02CEF4BEFA3
:1034900052E006C0EE24E39400E02CEF40E053E05D
:1034A0006AE783E123DEEE24E39400E02CEF45E0BD
:1034B00053E060E781E01ADE80910302823021F45C
:1034C0002CEF48E053E02BC080910302813039F4A7
:1034D000EE24E39400E02CEF4DE053E020C0809117
:1034E0000302811107C0EE24E39400E02CEF42E1D7
:1034F00053E015C080910302833039F4EE24E39445
:1035000000E02CEF47E153E00AC0809103028430D1
:1035100049F4EE24E39400E02CEF4CE153E060E743
:103520008BE0E4DD0F91EF900895EF920F93CF932E
:10353000DF9300E023E84BE260E080E0FCDCEE2477
:10354000E3942FEF41E253E060E181E0CFDD2FEF24
:1035500046E253E068E081E0C9DD81E08093060245
:1035600080910402813009F095C0EE24E39400E0DC
:103570002FEF4BE253E060E081E0B8DDC0E0D0E047
:1035800080910402882309F485C0CE015BDB6AE0E8
:1035900070E08EE593E000DA60E074E08EE593E0A1
:1035A00045DAADDEBBD12196C031D10549F7C0E186
:1035B000D0E080910402882309F46CC0CE0142DB84
:1035C0006AE070E08EE593E0E7D960E074E08EE5B4
:1035D00093E02CDA94DEA2D1219759F7EE24E394FC
:1035E00000E02FEF40E353E060E081E07FDDC0E1E9
:1035F000D0E080910402882309F44CC049DB6AE0E2
:1036000070E08EE593E0C8D960E074E08EE593E069
:103610000DDA75DE83D1219761F7EE24E39400E0A3
:103620002FEF42E153E060E081E060DDC0E1D0E0F7
:1036300080910402882371F158DB6AE070E08EE526
:1036400093E0AAD960E074E08EE593E0EFD957DE0D
:1036500065D1219769F7EE24E39400E02FEF45E36D
:1036600053E060E081E042DDC0E2D0E080910402FE
:10367000882381F05EDB6AE070E08EE593E08CD910
:1036800060E074E08EE593E0D1D939DE47D121972F
:1036900069F766CFDF91CF910F91EF900895C9DD63
:1036A000D1DDDCDD82E08093800029EE30E03093D4
:1036B00089002093880080936F008093900020E61B
:1036C0003AEE309399002093980080937100109205
:1036D00095001092940080919100816080939100F8
:1036E000DAD0FDD04DDB6CDB80E090E041DCCFDD5B
:1036F0002FEF3CE281E391E0215030408040904048
:10370000D9F700C0000080E090E032DC39DEA3DEB3
:1037100080910402811109DF8091060281119BDEF4
:10372000A5DD6AE070E08EE593E036D960E074E0F4
:103730008EE593E07BD9E3DD80910202882341F39B
:10374000EDD0E6CF1F920F920FB60F9211240BB659
:103750000F922F933F934F935F936F937F938F932A
:103760009F93AF93BF93CF93DF93EF93FF9380919A
:10377000780090917900C0915C03D0915D0320970F
:1037800059F0219760910302AE011EDACC0FDD1FC4
:10379000C25ADC4F9983888380915C0390915D03CA
:1037A000019690935D0380935C038130944059F4BB
:1037B000809181008E7F8093810010925D03109232
:1037C0005C0310920002FF91EF91DF91CF91BF91C6
:1037D000AF919F918F917F916F915F914F913F91A9
:1037E0002F910F900BBE0F900FBE0F901F9018954A
:1037F0001F920F920FB60F9211242F938F939F93C6
:1038000080B190E0809590958E719927892B91F1E8
:10381000F8942FEF86E791E0215080409040E1F747
:1038200000C0000080B190E0809590958E7199273E
:10383000892BE9F0019906C09091040281E0892763
:103840008093040202990BC0809103028F5F8093E2
:10385000030280910302853010F010920302039955
:1038600006C09091020281E089278093020281E0E4
:103870008093060280B190E0809590958E71992793
:10388000892BC1F778949F918F912F910F900FBE44
:103890000F901F9018951092CD008BE98093CC006B
:1038A000E8ECF0E080818D7F808386E08093CA0021
:1038B00088E18093C900539A08958093CE00809147
:1038C000C80085FFFCCF0895CF93DF93EC01899169
:1038D000882311F0F2DFFBCFDF91CF910895CF93D2
:1038E000DF93CDB7DEB728970FB6F894DEBF0FBED3
:1038F000CDBF88E0E9E4F2E0DE01119601900D927F
:103900008A95E1F7CE010196DFDF28960FB6F8948D
:10391000DEBF0FBECDBFDF91CF9108950F931F93F0
:10392000CF93DF9300D000D0CDB7DEB78CE393E028
:10393000CBDF0EE513E04AE0BE016F5F7F4FF80179
:10394000819191918F014ED2CE010196BDDF80E22F
:10395000B4DFF5E000361F0771F78CE493E0B4DFC5
:1039600026960FB6F894DEBF0FBECDBFDF91CF9184
:103970001F910F9108955058BB27AA270ED0E5C07C
:10398000D6D030F0DBD020F031F49F3F11F41EF49C
:10399000CBC00EF4E095E7FBC1C0E92FE7D080F380
:1039A000BA17620773078407950718F071F49EF53C
:1039B000FFC00EF4E0950B2EBA2FA02D0B01B9011C
:1039C00090010C01CA01A0011124FF27591B99F095
:1039D000593F50F4503E68F11A16F040A22F232FA1
:1039E000342F4427585FF3CF469537952795A795F1
:1039F000F0405395C9F77EF41F16BA0B620B730B98
:103A0000840BBAF09150A1F0FF0FBB1F661F771F08
:103A1000881FC2F70EC0BA0F621F731F841F48F4BD
:103A2000879577956795B795F7959E3F08F0B3CF43
:103A30009395880F08F09927EE0F9795879508952D
:103A400004D06894B111B5C0089598D088F09F57FC
:103A500090F0B92F9927B751A0F0D1F0660F771FDA
:103A6000881F991F1AF0BA95C9F712C0B13081F0BA
:103A70009FD0B1E008959CC0672F782F8827B85F4A
:103A800039F0B93FCCF3869577956795B395D9F71B
:103A90003EF490958095709561957F4F8F4F9F4F25
:103AA0000895E89409C097FB3EF490958095709531
:103AB00061957F4F8F4F9F4F9923A9F0F92F96E97A
:103AC000BB279395F695879577956795B795F111EF
:103AD000F8CFFAF4BB0F11F460FF1BC06F5F7F4F8C
:103AE0008F4F9F4F16C0882311F096E911C077239E
:103AF00021F09EE8872F762F05C0662371F096E8A7
:103B0000862F70E060E02AF09A95660F771F881F75
:103B1000DAF7880F9695879597F9089597F99F6733
:103B200080E870E060E008959FEF80EC0895002445
:103B30000A941616170618060906089500240A9412
:103B400012161306140605060895092E0394000C98
:103B500011F4882352F0BB0F40F4BF2B11F460FF27
:103B600004C06F5F7F4F8F4F9F4F089557FD905850
:103B7000440F551F59F05F3F71F04795880F97FB31
:103B8000991F61F09F3F79F08795089512161306EB
:103B90001406551FF2CF4695F1DF08C0161617061A
:103BA0001806991FF1CF869571056105089408954F
:103BB000E894BB2766277727CB0197F908950BD0A8
:103BC000C4CFB5DF28F0BADF18F0952309F0A6CFEF
:103BD000ABCF1124EECFCADFA0F3959FD1F3950FA1
:103BE00050E0551F629FF001729FBB27F00DB11D81
:103BF000639FAA27F00DB11DAA1F649F6627B00D11
:103C0000A11D661F829F2227B00DA11D621F739FF9
:103C1000B00DA11D621F839FA00D611D221F749F07
:103C20003327A00D611D231F849F600D211D822F4E
:103C3000762F6A2F11249F5750408AF0E1F0882395
:103C40004AF0EE0FFF1FBB1F661F771F881F9150A2
:103C50005040A9F79E3F510570F060CFAACF5F3F5B
:103C6000ECF3983EDCF3869577956795B795F795D5
:103C7000E7959F5FC1F7FE2B880F911D969587955D
:103C800097F9089511F40EF44FCF3EC077DFD0F3CB
:103C90009923D9F3CEF39F57550B87FF43D00024C8
:103CA000A0E640EA900180585695979528F4805CEC
:103CB000660F771F881F20F026173707480730F454
:103CC000621B730B840B202931294A2BA69517946C
:103CD0000794202531254A2758F7660F771F881F3C
:103CE00020F026173707480730F4620B730B840B5C
:103CF000200D311D411DA09581F7B901842F9158E8
:103D0000880F9695879508959F3F31F0915020F444
:103D1000879577956795B795880F911D96958795A7
:103D200097F9089591505040660F771F881FD2F77A
:103D30000895052E97FB16F400940FD057FD05D07B
:103D40002FD007FC02D046F408C05095409530951E
:103D500021953F4F4F4F5F4F0895909580957095F7
:103D600061957F4F8F4F9F4F089505D0332312F4F5
:103D70008A1B9B0B10C0A29FB001B39FC001A39FE1
:103D8000700D811D1124911DB29F700D811D112494
:103D9000911D0895F0DFB7FF0895821B930B0895DE
:103DA000A1E21A2EAA1BBB1BFD010DC0AA1FBB1F3F
:103DB000EE1FFF1FA217B307E407F50720F0A21BB1
:103DC000B30BE40BF50B661F771F881F991F1A941E
:103DD00069F760957095809590959B01AC01BD0148
:103DE000CF010895BB274A3031F4992322F4BDE274
:103DF000909581959F4F01C0BB27FB015527AA27AE
:103E0000880F991FAA1FA41710F0A41B8395505167
:103E1000B9F7A05DAA3308F0A95DA193009779F7DF
:103E2000B111B1931192CB0100C0DC01FC01672FED
:103E300071917723E1F7329704C07C916D93708381
:0E3E40006291AE17BF07C8F30895F894FFCF44
:103E4E0000000000010101EF00EE041B04FEFEFE67
:103E5E00FEEF904A047F3FEE044306EF900983087D
:103E6E00000BAF0A00050006000700EF00EE0CEF96
:103E7E00900080EFB04902EF007F01E181E202E2A3
:103E8E0076E1838001EF9000001B5B324A1B5B489A
:103E9E00005052414341204459504C4F4D4F5741D1
:103EAE00005265616C697A61636A6120616C676F4B
:103EBE007279746D6F7720616E616C697A790077B3
:103ECE0069646D6120637A6573746F746C69776F62
:103EDE007363696F7765676F007379676E616C6F77
:103EEE0077206F6B7265736F77796368004B4154FF
:103EFE004F4C49434B4920554E49574552535954FF
:103F0E004554004C5542454C534B49204C55424C60
:103F1E00494E20323031380057594B4F4E414C3AB2
:103F2E00006D677220696E7A2E20506177656C2065
:103F3E004C61776E696B0052533A004F4E20200051
:103F4E004F46462000573A0048414D4D0048414EDD
:103F5E004E00535152450054524E4700464C415468
:103F6E000044454D4F004D4F44450053494E4500CA
:103F7E00534157200052414E44002D0041542B53C3
:103F8E00544152545F53454E440A0D0041542B5335
:0C3F9E00544F505F53454E440A0D000084
:00000001FF
